:100000000C9497020C94DE020C94DE020C94DE0237
:100010000C94DE020C94DE020C94DE020C94DE02E0
:100020000C94DE020C94DE020C94DE020C949727F2
:100030000C9446280C94291D0C94DE020C94DE02CC
:100040000C94DE020C94DE020C94DE020C94761DFD
:100050000C94DE020C94DE020C94DE020C94DE02A0
:100060000C94DE020C94DE020C94DE020C94DE0290
:100070000C94DE0232074C073B0743075F076B0710
:100080008C07B407C307F3070A08380840080A08B2
:100090006613661398139813E51303144E154E1543
:1000A0004514DE14EF14EF14E315E315F515F515FB
:1000B000EC15F515F515F515E315E315F115F51521
:1000C000F515F115B328DA28D229DA28D2292629FC
:1000D0004929D229A029AF2900001B0007000A00E6
:1000E0000E000F0038000000B60052000000E300D0
:1000F0001D000600050011003700E600D85C500026
:10010000B7000000D75C160009000B000D0033009B
:10011000340028004C004E000000E000E20019000E
:100120002C00100036000151E700E40051004F00A0
:10013000165C140020002200240026002D00000080
:100140000000470000002B001A0015001C000C00E6
:1001500013002F00300049004B0000001E001F005C
:1001600021002300250027002E002A004600480019
:1001700000003900040008001700180012000000F9
:1001800031004D004A00000001000000A8000000FE
:100190004A004B0051000100620001000000010014
:1001A00000000000000057004E00010001000100A7
:1001B000630000000100A900B00055005400500089
:1001C0004F00000059005B0000000100010000002A
:1001D000025156004D000100010001000100010024
:1001E000350000003C003E0040004200440000009A
:1001F0000000600000000000000000000000460059
:100200004800520000005C005E0000003A003B0025
:100210003D003F004100430045004C005F0061008D
:1002200000003900AA0000000000000047000000A4
:100230004C005A005D00000001000100015C01005B
:1002400001000100010001000100010000000100A7
:100250000100010001000100010001000100010096
:100260000100000001000100010001000100010087
:100270000100010001000100000001000100010077
:100280000100010001000100010001000100010066
:100290000100010001000100010001000100010056
:1002A00000000100000001000100005C01000100ED
:1002B0000100010001000100010000000100010037
:1002C0000100010001000100010001000100010026
:1002D000000001000100DE5C0100010001000100DE
:1002E00001000100010000000403300000008E0343
:1002F0006D006F00640065006C0066006B006500B7
:10030000790062006F0061007200640073002E00CB
:1003100063006F006D0020004200720061006E00FB
:10032000640020004E006500770020004600360083
:1003300032002F0046003700370020004D006F00CC
:10034000640065006C002000460020004B00650042
:10035000790062006F00610072006400200062009A
:10036000790020004D006F00640065006C002000E3
:10037000460020004C0061006200730000005A0338
:1003800054006F006D00200057006F006E00670082
:100390002D0043006F0072006E0061006C006C0065
:1003A0002F0045006C006C00690070007300650050
:1003B0002F00770063006100730073002F0050006E
:1003C00075007200640065006100200041006E004D
:1003D000640072006500690000000403090409025A
:1003E0005B00030100A0FA09040000010301010001
:1003F0000921110100012240000705810308000ABC
:10040000090401000203000000092111010001227A
:1004100022000705820320000107050303200001D5
:10042000090402000103000000092111010001225A
:1004300081000705840320000A120110010000005A
:1004400008810402000100010203010660FF096146
:10045000A1010962150026FF009520750881020997
:1004600063150026FF00952075089102C00501095B
:1004700002A10185020901A100050919012905153B
:10048000002501950575018102950175038101051E
:1004900001093009311581257F950275088106090A
:1004A000381581257F950175088106050C0A3802EB
:1004B0001581257F950175088106C0C00501098059
:1004C000A101850319012AB700150126B70095017E
:1004D00075108100C0050C0901A101850419012ACC
:1004E000A002150126A002950175108100C005012A
:1004F0000906A101050719E029E71500250195085E
:10050000750181029501750881010507190029FF10
:10051000150026FF009506750881000508190129B8
:1005200005950575019102950175039101C011248E
:100530001FBECFEFD4E0DEBFCDBF04B603FE27C0A1
:1005400080913D0390913E03A0913F03B091400301
:100550008730904BA740B04BD1F410923D031092DE
:100560003E0310923F031092400314BE84B7877F6E
:1005700084BF0FB6F894A89580916000886180933D
:100580006000109260000FBEE0E0F8E3099511E012
:10059000A0E0B1E0EAE6F5E502C005900D92AE3CC0
:1005A000B107D9F723E0AEECB1E001C01D92AD3345
:1005B000B207E1F70E9469240C94B32A0C9400005E
:1005C000219A229A209A289A2998299A2998089556
:1005D000880F991F880F991F289820E130E097FF16
:1005E00002C02A9A01C02A98880F991F299A29982F
:1005F00021503109A1F7289A299A29988AE28A95E7
:10060000F1F700C008955C9880E190E05F9A5F98F0
:100610000197E1F75E9A5E9808950F931F935F9894
:100620005E98EFE0F0E077FF02C05C9A01C05C9852
:100630005F9A309719F42115310509F45F98660F18
:10064000771F881F991F319770F75E9A012B09F465
:100650005E98452B11F05C9A01C05C981F910F9138
:1006600008952FE030E090E08217930711F45C9A30
:1006700001C05C985F9A5F9821503109A8F70895EE
:10068000549A559A569A579A5D985E985F980E9428
:1006900003038AE28A95F1F700C00895EF92FF9272
:1006A0000F931F93CF93DF9300D01F92CDB7DEB788
:1006B0008B017A010E943103B8016F5F7F4FFE0109
:1006C000319680E090E0F89416B109B1119301934E
:1006D0005E9A16B109B110830083019686179707B9
:1006E000C0F378945E980E9403038AE28A95F1F73A
:1006F00000C012951F70802F8295807F812BE1149E
:10070000F10451F09981292F22952F709A819295A9
:10071000907F922BF70190830F900F900F90DF91B5
:10072000CF911F910F91FF90EF9008956F927F925C
:100730008F929F92AF92BF92CF92DF92EF92FF92F1
:100740000F931F93CF93DF93782E662E822E922ED7
:100750009694EE24EA9493E0F92E00E010E0C42E83
:10076000D12CE701C00FD11FD695C795CE010E94AD
:10077000E802A12CB12CA81491F040E050E0B601A1
:10078000872D0E944E0390E0062C02C09595879518
:100790000A94E2F781709927B80EA394ECCFB914AC
:1007A00028F47E0181E0E81AF10805C09B1440F4AA
:1007B0008E010F5F1F4F0E151F0598F2C80101C073
:1007C000CE01DF91CF911F910F91FF90EF90DF90BD
:1007D000CF90BF90AF909F908F907F906F90089533
:1007E00097E0961B692F8A3009F48FE00C949603EA
:1007F0003F924F925F926F927F928F929F92AF92B1
:10080000BF92CF92DF92EF92FF920F931F93CF93FD
:10081000DF93662E742EAA24AA9433E0B32E00E050
:1008200010E044244394512C882E912CE501C00FF4
:10083000D11F711001C02196D695C795CE010E9497
:10084000E802C12CD12CEC2CB601660F771F27E0F3
:1008500030E080E090E0F12CFC01E60FF71FE85259
:10086000FF4F45915491452B39F0A201022E01C052
:10087000440F0A94EAF7F42A469621503109803B46
:10088000910551F78AE0E81202C09FE0E92E312C71
:100890003614D1F040E050E0B4018E2D772041F0C5
:1008A0000E944E038F2171F08E010F5F1F4F19C000
:1008B0000E944E038F21F81629F05E0181E0A81AEC
:1008C000B1080FC03394E4CF8FEFC81AD80A8BE079
:1008D000C816D10409F0B7CF711002C08E0101C053
:1008E0005E010A151B0508F4A1CFC801DF91CF9165
:1008F0001F910F91FF90EF90DF90CF90BF90AF903E
:100900009F908F907F906F905F904F903F90089551
:100910005F926F927F928F929F92AF92BF92CF928F
:10092000DF92EF92FF920F931F93CF93DF93CDB798
:10093000DEB764970FB6F894DEBF0FBECDBF4AE0B6
:1009400050E06FEF70E0CE010B960E94642A4AE0FF
:1009500050E06FEF70E0CE0101960E94642A41E002
:1009600060E184E00E94F8039093AF028093AE02AE
:1009700040E060E184E00E94F80390939D02809340
:100980009C022091AE023091AF022115310519F081
:100990002150310902C020E030E0FC0131962E17D1
:1009A0003F0708F49F012E1B3F0B6901CC0CDD1C97
:1009B00002E912E078018AE0A82EB12CC901B50144
:1009C0000E94202A6E0F7F1FD7016D937D937D01BA
:1009D0002C0D3D1DBCE9EB16B2E0FB0679F7E12CCE
:1009E000F12C712C512CAA24A394B12C45010E2C6E
:1009F00002C0880C991C0A94E2F7E7E06E2EC12C25
:100A0000D12CC6016BE070E00E940F2A8E0D9F1D55
:100A1000FC01EE0FFF1FE852FF4F85919491892B47
:100A200009F46CC020E144E0662D852D0E949603F8
:100A30002091920230919302AC01421B530B57FF5D
:100A400003C0519541955109E4E9F2E020E031E01D
:100A500061917191DC01A61BB70BBD01B7FF03C00B
:100A60007195619571096417750710F4AB01232F17
:100A70003F5F353069F730E0F90143E0EE0FFF1FCB
:100A80004A95E1F7EC0DFD1DEE0FFF1FE055FD4F00
:100A9000408151814829592951834083220F331FB6
:100AA000E1E0F0E0EC0FFD1FE20FF31F42855385FC
:100AB0004F3FBFEF5B0719F04817590740F4E1E0DB
:100AC000F0E0EC0FFD1FE20FF31F93878287E1E058
:100AD000F0E0EC0FFD1FE20FF31F408151814F3F0B
:100AE000EFEF5E0719F08417950740F4E1E0F0E0BE
:100AF000EC0FFD1FE20FF31F91838083FFEFCF1AEE
:100B0000DF0A6A942FEF62127CCF73946BE0761643
:100B100059F0EAE07E1611F0572C02C0FFE05F2E7C
:100B2000FFEFEF1AFF0A62CFDE011B96CE0101969E
:100B30006C017E0195E1E90EF11C4FEF53E06D91E0
:100B40007D916F3FEFEF7E0739F0F6018081918153
:100B50008F3FFFEF9F0721F4F8018081918104C04E
:100B6000860F971F9695879548968115F4E09F0705
:100B700020F0F8015183408303C0F8019183808302
:100B80000E5F1F4FF2E0CF0ED11CEA16FB06B9F63E
:100B900064960FB6F894DEBF0FBECDBFDF91CF9144
:100BA0001F910F91FF90EF90DF90CF90BF90AF908B
:100BB0009F908F907F906F905F900895892B11F098
:100BC0002C9A01C02C98672B11F02D9A08952D981E
:100BD0000895249A259A40E050E060E070E080E0BB
:100BE00090E00E94DE050E9440030E94E00288B16E
:100BF000806F88B98BB18F608BB90E945B1D909319
:100C00000103809300030E9488040E945B1D2091D1
:100C1000000330910103821B930B90930103809397
:100C200000030895CF93DF93C82F0E94BE08D82FEA
:100C3000882369F0C2FB442740F9C1FB662760F9AD
:100C400050E070E08C2F817090E00E94DE058D2FC7
:100C5000DF91CF9108950C94E905DC01EEE9F2E013
:100C600080E02D913D91408151814217530709F059
:100C700081E02193319392E0EE3AF90791F70895DC
:100C80002F923F924F925F926F927F928F929F929C
:100C9000AF92BF92CF92DF92EF92FF920F931F938A
:100CA000CF93DF9300D000D0CDB7DEB74C0180E109
:100CB000F40111928A95E9F732E9C32E32E0D32E7E
:100CC00040EBA42E42E0B42EF601819191916F0188
:100CD0000E94E80200E010E0512C312C0C836624C5
:100CE0006394712C002E02C0660C771C0A94E2F704
:100CF0007401BB82AA8297E0492E80E0EA81FB81E1
:100D000021913191FB83EA8326213721232B69F13D
:100D1000811109C0AE014F5F5F4F64E070E0832D29
:100D20000E944E03282E898190E0042C02C09595E4
:100D300087950A94E2F780FD17C0822D90E0042C7D
:100D400002C0959587950A94E2F7817099270C80E7
:100D500002C0880F991F0A94E2F7F70120813181C0
:100D6000822B932B9183808381E04A94F2E0EF0EF3
:100D7000F11C9FEF4912C2CF5394EBE05E1651F085
:100D8000FAE05F1611F0352C02C02FE0322E0F5F13
:100D90001F4FA4CFF0E1AF0EB11C8CE9C81682E062
:100DA000D80609F091CF0F900F900F900F90DF9120
:100DB000CF911F910F91FF90EF90DF90CF90BF9058
:100DC000AF909F908F907F906F905F904F903F90EB
:100DD0002F900895CF93DF93EC0180910001882339
:100DE00021F0CE010E94400605C080E1FE01119273
:100DF0008A95E9F7CE01DF91CF910C942D06AF9241
:100E0000BF92CF92DF92EF92FF920F931F93CF93F7
:100E1000DF93CDB7DEB7E0970FB6F894DEBF0FBE15
:100E2000CDBF8C0142E050E069E171E00E944E2AA2
:100E3000892B09F034C18091190190911A019A838C
:100E4000898383E28B83D80112962C91822F90E0C4
:100E5000FC017197EE30F10508F01CC1E65CFF4F14
:100E60000C94482A82E28B8382E08C831D821E824E
:100E700085E08F830FC182E28B83809100018C8398
:100E80001092000107C182E28B83809100018C8364
:100E900081E080930001FEC010920001EFE3FCE9C5
:100EA0003197F1F700C000000E949C1D8FE39CE980
:100EB0000197F1F700C0000082E28B83EBC082E271
:100EC0008B83CE0181960E94400680E1FE01B1969F
:100ED000DE0114961CC082E28B8385E08C83D801EE
:100EE0001396EC91F0E0DF01AA0FBB1FAE56BD4F89
:100EF0009C9111968C919D838E8394E0EE0FFF1F41
:100F00009A95E1F7E055FD4F80E1DE0117960190DB
:100F10000D928A95E1F7BEC082E28B83F80163816E
:100F200070E0E0910101F0910201DF010D900020DD
:100F3000E9F7CD018E1B9F0B6817790710F01C8213
:100F4000A9C06E0F7F1FFB0101900020E9F7AF01E0
:100F5000461B570B4E31510510F04DE150E0CE01CC
:100F600004960E945B2A96C082E28B8300E010E028
:100F70006FEFC8010E947F2A0F5F1F4F0F3FF3E002
:100F80001F07B1F787C082E28B83D8011396FC90CC
:100F900013971496EC9014971596CC908E010F5FD2
:100FA0001F4FA12CB12CD12CAC14BD040CF072C07D
:100FB00028E044E06E2D8F2D0E94F003F80183831A
:100FC000948381E08F0D8B3018F086EF8F0DE394C2
:100FD0000E5F1F4FF7E0FE1508F45CC09FEFA91AE3
:100FE000B90AF82EE1CF82E28B838BE08C8388E014
:100FF0008D8392E09E838F83888794E0998791E028
:101000009A879FEF9B8793E09C878D871E861F861C
:10101000188A40C082E28B83D80113966D917D912E
:101020008D919C9116972E3161F417964C911797DC
:1010300050E018962C91189730E019960C9110E01A
:1010400006C000E010E020E030E040E050E00E9408
:101050000D0389B1829581708C8389B1881F88279F
:10106000881F8D8389B186FB882780F98E8312C003
:1010700082E28B83F801838194810E94E8020AC096
:1010800082E28B8340E050E060E070E08FEF0E94EE
:101090004E038C8360E2CE0101960E945223E096BB
:1010A0000FB6F894DEBF0FBECDBFDF91CF911F9179
:1010B0000F91FF90EF90DF90CF90BF90AF90089589
:1010C000089581E0089581E008950C9463080895DF
:1010D0000C9467081F93CF93DF9300D000D01F922A
:1010E000CDB7DEB749835A836B832091F0018981A4
:1010F0009A81211112C0662349F00E94AC1A182F60
:10110000682F89819A810E944C1A03C00E947D1A1F
:10111000182F69817A81812F04C00E94AC1A6981DD
:101120007A810F900F900F900F900F90DF91CF91D9
:101130001F910C941D09FC014081518162817381D2
:1011400084810C946A08CF93DF93EC010E949B0882
:10115000BE01DF91CF910C9468080E94D11B8111D0
:1011600002C00E94731C0E94290C0C94460B0E9422
:10117000B50B0C94420B08950C94BB0881E00895C4
:10118000CF93C82F0E94BC088C2F0E941206CF91CB
:10119000089508950E94D1150E94C9082FEF84E395
:1011A0009CE0215080409040E1F700C000000E9488
:1011B0003B0E0C949C1D0F931F93CF93DF93EC0178
:1011C0000E949B088C01BE010E949A0D882379F130
:1011D000BE01C8010E946508882349F1BE01C8010B
:1011E0000E940C0F882319F1BE01C8010E944D0F07
:1011F0008823E9F0BE01C8010E9478108823B9F065
:101200008A81882369F001158CE5180731F00E3DBD
:101210001C4531F40E94731C0AC00E94CA0807C012
:10122000CE01DF91CF911F910F910C94610880E066
:10123000DF91CF911F910F910895382F262F872F7F
:1012400090E06BE070E00E940F2AFC01832F90E099
:1012500068E570E00E940F2A8E0F9F1FFC01E20FCD
:10126000F11DEE0FFF1FE852FF4F859194910895F5
:10127000CF93DF930E941D090E94420AEC01811561
:10128000914508F044C0C11580E5D80708F08BC02F
:10129000C83ED10528F5C03ED10508F0EFC0C83AD8
:1012A000D10578F4C53AD10508F075C0C130D10533
:1012B00009F4E4C008F4E0C0C430D10508F0DEC091
:1012C000DBC0CF3BD10508F0D7C0C85AD0E0CC0F67
:1012D000DD1FCE5ADE4F0990D881C02DD464CEC018
:1012E000C11520E2D20758F4C11581E0D80708F0F3
:1012F000C5C0C03FD10508F4BFC0D065BFC0C1158F
:1013000020E4D20708F4B8C0DF70D06AB7C0C115B6
:1013100085E5D807A0F4C11524E5D20708F092C0EE
:10132000C11583E5D80708F075C0C11522E5D207BD
:1013300008F058C0DC2FCC27C16FD06A9FC0C11500
:1013400089E5D807A0F4C11528E5D20708F07FC0C9
:10135000C11586E5D80708F08FC08C2F0E94D60AE9
:101360008F71C82FD0E0DC2FCC27D06287C0C11589
:101370002AE5D20708F470C0CE019056811590423C
:1013800008F07AC08D2F8F710E94D60ADD27D062B7
:101390008F71D82B73C0C55AD0E0C058DE4FC881BA
:1013A000D0E0D0646BC0CE01F4E096958795FA95B5
:1013B000E1F7282F23703C2F337081E090E002C0CA
:1013C000880F991F3A95E2F79C68922BCF70C695CB
:1013D000C695D0E0A5E0CC0FDD1FAA95E1F7C82B9C
:1013E000D92B4CC0CE018370992721E030E002C098
:1013F000220F331F8A95E2F78C2F86958695C82F8A
:10140000D0E075E0CC0FDD1F7A95E1F7C22BD32B2E
:10141000DC6834C0CE018370992721E030E002C03F
:10142000220F331F8A95E2F78C2F86958695C82F59
:10143000D0E065E0CC0FDD1F6A95E1F7C22BD32B1E
:10144000DA681CC0DC2FCC27C46FD06A17C0DC2F31
:10145000CC27C06FD06A12C08C2F8F700E94D60A22
:1014600094E0D695C7959A95E1F7CF70D0E0DC2F40
:10147000CC27D069C82B02C0C0E0D0E0CE01DF91FC
:10148000CF9108958238910569F1B0F481339105C7
:1014900009F46DC048F48932910509F463C08A32B9
:1014A000910509F469C008958533910509F455C083
:1014B00089339105B9F00895833E910569F138F4B7
:1014C000803E9105B1F0823E910509F10895863E76
:1014D0009105A9F1873E9105B9F1843E910509F086
:1014E00064C023C020912E0320FD4FC021FD4DC0BC
:1014F000089580912E0380FD44C080912F0380FFCA
:1015000044C080912E0384FD42C083EE4DC0809183
:101510002E0382FF38C0F5CF80912E0382FD33C0A9
:1015200080912F0380FD31C0ECCF80912F0381FF8C
:1015300032C080912E0384FD2AC087EE35C0809191
:101540002E0383FF26C0F5CF80912E0383FD21C09B
:1015500080912F0381FD1FC0ECCF80912E0385FD6C
:101560001CC01DC080912E0385FD19C016C080913E
:101570002E0386FD16C017C080912E0386FD13C072
:1015800010C089E311C082EE0FC080EE0DC080E074
:101590000BC086EE09C084EE07C089E205C085E372
:1015A00003C08AE201C081E390E0089590912E0388
:1015B00092FF0DC0282F2871283019F4877F84608E
:1015C00006C0282F2471243011F48B7F886093FF8C
:1015D0000DC0282F2871283119F4877E846106C038
:1015E000282F2471243111F48B7E886120912F03E0
:1015F00020FF0DC0382F3871383019F4877F816093
:1016000006C0382F3171313011F48E7F886021FF90
:101610000DC0282F2871283119F4877E816106C0FA
:10162000282F2171213111F48E7E886194FD877EEF
:1016300008950895809302030E943D0E0C94190BA7
:1016400082E0809302030E943D0E0C94190B80935C
:1016500002030E943D0E0C94190B109202030E948B
:101660003D0E0C94190B0C942D0BE82FF0E0EE0FAF
:10167000FF1FED5EFC4F80819181089508950895CC
:101680000C943F0B0C94400B0C943F0B0C94440BAC
:101690000E942B06E3E0F3E0A3E1B3E01192119284
:1016A0001D921D9283E0E331F807C1F788E00E94A4
:1016B0006E0B0C94AD08CF9383E093E00E94EA0692
:1016C000C82F282F48E063E173E083E093E00E9495
:1016D0006F0B0E94B7088C2FCF9108950895FF9249
:1016E0000F931F93CF93DF93F82E092F162FD72F29
:1016F000C42F222349F081E08093D0010E945B1D1A
:101700009093CF018093CE018091D0018823D9F0AE
:101710008091CE019091CF010E94671D069798F0AD
:10172000EF2DF02FA12FBD2F80E090E04C2F50E047
:101730008417950734F4219131912D933D930196AF
:10174000F7CF1092D001DF91CF911F910F91FF90B1
:1017500008958091230380FF06C0809102038130A9
:1017600011F42F9A08952F9808950C94640ECF9336
:10177000DF93C3E2D3E08881816088830E94A90B54
:10178000688179818A819B81DF91CF910C94791C4A
:10179000CF93DF93C3E2D3E088818E7F88830E945A
:1017A000A90B688179818A819B81DF91CF910C940B
:1017B000791C8091230380FF03C00E94C80B02C0E4
:1017C0000E94B70B6091230370912403809125033D
:1017D000909126030C94791C90912303892F869570
:1017E0008F5F8370997F833029F0880F892B8093D6
:1017F000230302C090932303609123037091240379
:1018000080912503909126030C94791CCF93DF934C
:10181000C3E2D3E08881816088830E94A90B88811C
:10182000897F8883E4E2F3E080818770A5E2B3E0FA
:101830009C919C7F9C93806A8B7F808384E10E9433
:10184000410E688179818A819B81DF91CF910C94CF
:10185000791C809175028160809375020E94D11B72
:10186000811102C00E94731C0E94751C60932303A7
:10187000709324038093250390932603909124036F
:101880009695969596958091250383708295880FFD
:10189000807E892B0E94410E809123039091240326
:1018A000A0912503B0912603892B8A2B8B2B71F0F5
:1018B00080912403982F969596959695809125036F
:1018C00083708295880F807E892B19F40E94060C04
:1018D00002C00E94A90B0E948D0E279A0895E3E290
:1018E000F3E0282F220F220F220F90819770922B66
:1018F0009083829586958370A4E2B3E09C919C7F4F
:10190000892B8C9360817181828193810C94791CE5
:1019100080912303982F9695969596958091240310
:1019200083708295880F807E892B8F5F0C946F0C5B
:1019300080912303982F96959695969580912403F0
:1019400083708295880F807E892B81500C946F0C58
:10195000E5E2F3E0282F220F220F220F90819770EB
:10196000922B9083E6E2F3E08295869587709081D2
:10197000987F892B80836091230370912403809149
:101980002503909126030C94791C91E0811101C0EC
:1019900090E08091240390FB82F98093240360916E
:1019A00023037091240380912503909126030C94C6
:1019B000791CE4E2F3E0908192FB222720F981E098
:1019C000822780FB92F990830C94C50CE4E2F3E04B
:1019D000282F220F220F220F90819770922B908335
:1019E000829586958370E5E2F3E090819C7F892B58
:1019F000808360912303709124038091250390914B
:101A000026030C94791CCF93DF93C09124038C2F71
:101A1000869586958695C0912503C370C295CC0F97
:101A2000C07EC82BD0E0C436D1053CF42196C53623
:101A3000D1052CF0C4E6D0E002C0C4E0D0E08C2F89
:101A40000E94410E8C2FDF91CF910C94E60CCF9326
:101A5000DF93C09124038C2F869586958695C0913F
:101A60002503C370C295CC0FC07EC82BD0E0C53013
:101A7000D10514F0219702C0C4E6D0E08C2F0E945B
:101A8000410E8C2FDF91CF910C94E60C80912503B1
:101A9000982F969596959695809126038295880F16
:101AA000807E892B883710F4865F01C088E70C940C
:101AB000A80C80912503982F9695969596958091E0
:101AC00026038295880F807E892B843110F08A50FE
:101AD00001C084E10C94A80CFB01811522E592075A
:101AE00078F4811521E5920718F5803E9105A0F064
:101AF000883E9105E8F0905481159041A8F00CC003
:101B0000811528E5920740F0811529E5920730F00C
:101B100090568115904240F081E008959581907F24
:101B200081E0903529F405C09581907F81E009F42A
:101B300080E008950F931F93CF93DF938C01EB0107
:101B4000063E8CE5180731F48A81882361F10E94F2
:101B5000B70B29C0073E8CE5180731F48A8188232A
:101B600011F10E94C80B1FC0083E8CE5180731F424
:101B70008A81882319F10E94D90B20C0093E8CE587
:101B8000180731F48A81882321F10E94060C21C0B4
:101B90000A3E8CE5180739F48A81882309F447C086
:101BA0000E94EC0B44C00B3E8CE5180739F48A8187
:101BB000882309F446C00E94D90C43C00C3E8CE532
:101BC000180739F48A81882309F445C00E94880CDB
:101BD00042C00D3E8CE5180731F48A81882359F004
:101BE0000E94980C08C0013F8CE5180701F58A8116
:101BF00081110E94030D8091230380FF36C09091D4
:101C00000203913091F59A8186958370992361F052
:101C100090E0029754F5BE01C8010E946C0D882324
:101C200021F10E944A0E21C08111F5CF1EC0023F52
:101C30008CE5180731F48A818823E9F20E94270D88
:101C4000DACF0F3E8CE5180731F48A81882399F2A8
:101C50000E94460DD0CF003F8CE5180761F68A81BF
:101C6000882349F20E94590DC6CF81E0DF91CF91C0
:101C70001F910F9108950C94960E0E94A90B279A1C
:101C800008958093030108952E981092D401109224
:101C9000D30108958091240382FD05C08091D40171
:101CA000882329F008958091D30181110CC081E02F
:101CB0008093D4018093D3010E945B1D9093D20145
:101CC0008093D1012E9A08958091D401882321F127
:101CD0008091D1019091D2010E94671D2091030152
:101CE00030E02817390710F40C94440E2091240397
:101CF00022FF12C0877099272091D301049738F4EE
:101D000021110AC081E08093D3012E9A08952223E5
:101D100019F01092D3012E9808952E98269A80914A
:101D20000203813011F40C944A0E08952E98089500
:101D30000F931F93CF93DF93C62FD42F122FFC0145
:101D400082818823C9F06093D7010E945B1D909324
:101D5000D6018093D50180E28C0F883008F057C0FF
:101D6000C77081E001C0880FCA95EAF7DF91CF9173
:101D70001F910F910C9422138091D701681330C0EA
:101D80008091D5019091D6010E94671D883C9105F4
:101D900038F500E20D0FCD17B9F080E28C0F8830D6
:101DA00040F4C77081E001C0880FCA95EAF70E942D
:101DB0002913083028F581E09D2F977001C0880F06
:101DC0009A95EAF70E942213812F0E940F13083080
:101DD000F0F4D77081E001C0880FDA95EAF70AC005
:101DE00080E28C0F883098F4C77081E001C0880FC2
:101DF000CA95EAF7DF91CF911F910F910C942913A7
:101E0000812FDF91CF911F910F910C940F13DF91D0
:101E1000CF911F910F9108959C01CB01233F4CE579
:101E20003407F9F078F4283DFCE53F07B9F0293D87
:101E30004CE5340711F1273D3C4531F526E241EEF2
:101E400061EE1EC0253FFCE53F0799F070F0263F8C
:101E50003C45D1F427E245EE66EE12C027E245EE9E
:101E60000EC026E241EE60EE0BC027E245EE64EEC6
:101E700007C026E241EE62EE03C028E241E065EED3
:101E80000E94980E80E00895FC018281882319F059
:101E90001092D701089581E00895CF93DF93EC016C
:101EA000FB018281882309F41FC1C230FCE5DF07F2
:101EB00008F41BC1C6319CE5D90738F09E012A5FA2
:101EC0003C452930310508F010C10E94E41B909375
:101ED0002F0380932E03C031ECE5DE0709F4C3C065
:101EE00008F041C0C8308CE5D80709F49AC0F0F476
:101EF000C430ECE5DE0709F487C068F4C2308CE535
:101F0000D80709F477C0C330DC4509F0E3C08091FD
:101F10002E03826076C0C630ECE5DE0709F46EC0A1
:101F200008F07BC080912E0388606BC0CC308CE5BC
:101F3000D80709F485C068F4CA30ECE5DE0709F477
:101F400074C008F079C00E94D11580912E0380687A
:101F500058C0CE308CE5D80709F476C008F07FC0B1
:101F600080912E038BC0CB3FECE5DE0709F44FC018
:101F700018F5C3318CE5D80709F47DC078F4C13178
:101F8000ECE5DE0709F473C0C231DC4509F0A2C0FC
:101F90000E94D11580912E038F7733C0C5318CE517
:101FA000D80709F472C008F486C0CA3FDC4509F0BE
:101FB00091C080912F033EC0CF3FFCE5DF0709F4BD
:101FC0005FC058F4CD3F9CE5D90709F444C008F43C
:101FD0003FC080912F0382602DC0C130FDE5DF0737
:101FE00009F475C008F45DC0C230DD4509F072C067
:101FF00080E06EC080912E03816003C080912E032B
:10200000806180932E0366C080912E0311C0809161
:102010002F03826080932F035DC080912E03806226
:10202000F0CF80912E038064ECCF80912E038860E6
:102030008460E7CF8160EECF80912E038E7FE1CF69
:1020400080912E038D7FDDCF80912E03877FD9CFA6
:1020500080912F0318C080912F038D7FDBCF80915B
:102060002E038F7ECECF80912E038F7DCACF80919D
:102070002E038F7BC6CF80912E03877F8B7FC1CFAE
:1020800080912F038D7F8E7FC5CF80912E0382FBA1
:10209000222720F991E0922790FB82F990FB83F9A7
:1020A000B0CF80912F03982F909591708E7F892BC0
:1020B00090FB81F9AFCF0E94D11580912E0387FB51
:1020C000222720F991E0922790FB87F99ACF81E0AF
:1020D0000E947F1C80912E0390912F030E94F51B7C
:1020E0000E94D11580E001C081E0DF91CF91089579
:1020F000CF93DF9386319C4541F5EB010E942D1B68
:10210000982F8A812091040130910501882379F06C
:102110009A7A81E009F480E08093D801911102C09D
:1021200069E201C065E3C9010E94C61C0AC0809132
:10213000D801811102C069E201C065E3C9010E94B2
:10214000C81C0E946E1B80E001C081E0DF91CF912E
:1021500008959093DE018093DD010895E091DD0103
:10216000F091DE01309721F00190F081E02D09948B
:1021700080E00895E091DD01F091DE01309721F0DB
:102180000280F381E02D09940895E091DD01F09142
:10219000DE01309739F022E0DC012C930480F581D8
:1021A000E02D099408952091DB013091DC0128177E
:1021B000390771F09093DC018093DB01E091DD0140
:1021C000F091DE01309721F00680F781E02D09942F
:1021D00008952091D9013091DA012817390771F05B
:1021E0009093DA018093D901E091DD01F091DE0155
:1021F000309721F00084F185E02D09940895089529
:102200000C94FF100C9400110C94FF100E94041108
:102210000C94021181E008950E94521D0E94480B07
:102220000E94C01D0C9460087F928F929F92AF9283
:10223000BF92CF92DF92EF92FF920F931F93CF93B3
:10224000DF93CDB7DEB72A970FB6F894DEBF0FBE87
:10225000CDBF0E945B0B0E940A11811111C08FEF4C
:1022600089838A831B820E945B1D8160782F9D83F6
:102270008C8349815A816B818D810E94C4114FC02A
:1022800040EEA42E41E0B42E00E010E0702E802F2E
:102290000E94350B6C01F501819091905F018826B9
:1022A00099268114910431F40F5F1F4F08301105F6
:1022B00069F7D5CF8091750281FD0E943E0B80E0C9
:1022C000EE24E394F12C94012E213F21232B09F1DC
:1022D0008E837F82CE20DF2081E0CD2809F480E04C
:1022E00088870E945B1D8160782F9A8789874E813D
:1022F0005F8168858A850E94C411000F111FF80153
:10230000E052FE4F80819181E826F926F182E08239
:1023100006C08F5FEE0CFF1C8B30A9F6C5CF0E9464
:10232000561F0E94AE109091DF018917C9F00E94DC
:10233000AE108093DF012A960FB6F894DEBF0FBE71
:10234000CDBFDF91CF911F910F91FF90EF90DF9064
:10235000CF90BF90AF909F908F907F900C94C008CB
:102360002A960FB6F894DEBF0FBECDBFDF91CF9196
:102370001F910F91FF90EF90DF90CF90BF90AF90A3
:102380009F908F907F900895CF93DF93CDB7DEB766
:102390002B970FB6F894DEBF0FBECDBF4F83588783
:1023A00069877A878B87DE01119686E0FD0111929D
:1023B0008A95E9F785E0FE01379601900D928A959E
:1023C000E1F749815A816B817C818D819E810E94D8
:1023D00089182B960FB6F894DEBF0FBECDBFDF91E4
:1023E000CF910895FC01808191810E94EE1A089599
:1023F000CF93882309F4A9C0C82F8238C1F40E9462
:10240000AE1081FDA2C069E38091040190910501A5
:102410000E94C61C0E946E1B2FEF81EE94E021509B
:1024200080409040E1F700C0000069E319C08338A4
:1024300001F50E94AE1080FD88C063E58091040123
:10244000909105010E94C61C0E946E1B2FEF81EE29
:1024500094E0215080409040E1F700C0000063E527
:1024600080910401909105010E94C81CCF910C94A9
:102470006E1B8438C1F40E94AE1082FD66C067E412
:1024800080910401909105010E94C61C0E946E1B60
:102490002FEF81EE94E0215080409040E1F700C0A2
:1024A000000067E4DDCF8CEF8C0F813AF8F48C2FBD
:1024B0000E941822811149C06C2F809104019091D3
:1024C00005010E94901C882349F06C2F8091040123
:1024D000909105010E94C81C0E946E1B6C2F809178
:1024E0000401909105010E94C61CC0CF80E28C0FB0
:1024F000883048F4C77081E001C0880FCA95EAF7B8
:102500000E94301BB3CFEBE5EC0FE33040F4F0E07A
:10251000EF54FE4F808190E0CF910C94D310E8E50A
:10252000EC0FE73150F4F0E0EE0FFF1FED57FE4FD8
:1025300080819181CF910C94E910C03F30F08C2FB5
:102540000E945E1ECF910C944B1FCF91089588235B
:1025500009F464C0823879F40E94AE1081FF5EC035
:1025600069E380910401909105010E94C61C0E94BC
:102570006E1B69E310C08338B1F40E94AE1080FF77
:102580004DC063E580910401909105010E94C61C35
:102590000E946E1B63E580910401909105010E94E9
:1025A000C81C0C946E1B843879F40E94AE1082FF14
:1025B00035C067E480910401909105010E94C61C1A
:1025C0000E946E1B67E4E7CF9CEF980F913A10F4DE
:1025D000682FE1CF90E2980F983050F4877091E027
:1025E00001C0990F8A95EAF7892F0E94361BD9CF2F
:1025F0009BE5980F933020F480E090E00C94D3108A
:1026000098E5980F973120F480E090E00C94E91061
:10261000803F20F00E94C61E0C944B1F0895CF935C
:10262000C82F0E94F811C93349F42FEF87EE93E0C9
:10263000215080409040E1F700C000008C2FCF91E6
:102640000C94A712882321F00E94301B0C946E1B5F
:102650000895882321F00E94361B0C946E1B089568
:10266000CF92DF92EF92FF920F931F93CF93DF935E
:102670007C01D62FC72FFC01058102950F701281B6
:1026800011110E944D1B0E94261B882379F01123F3
:1026900069F080E28D0F883048F082E00E94B81B1C
:1026A0000E94261B91E0D82ED92601C0D12CCC2E19
:1026B000C2948FE0C8228C2D90E08C30910508F0F8
:1026C000EDC1FC01E85BFF4F0C94482A8C2F807F02
:1026D000CF70882311F0C295C07F112399F0CC23CD
:1026E00009F4C8C180E28D0F883010F0D11104C008
:1026F0008C2F0E94301B03C08C2F0E94401B0E9415
:102700006E1BB8C18D2F0E94A712CC2309F4C6C13D
:1027100080E28D0F883010F0D11104C08C2F0E9400
:10272000361B03C08C2F0E94461B0E946E1BB6C135
:102730008C2F807FCF70803211F0C295C07FDD2357
:1027400019F0D130C9F022C0112371F0002341F0FB
:10275000013031F40E94531B8C2B0E945B1B9EC1E5
:102760000E94531B8C2B1DC0002319F0013009F46B
:1027700095C10E94641B25C0112321F0063008F08A
:102780008DC10EC0053008F089C11BC0112361F056
:10279000002331F0F701858180FF6CC18F70858344
:1027A0008C2F0E9422137AC1002359F0D93309F0EB
:1027B00072C1FFEF07EE13E0F15000401040E1F767
:1027C00068C18C2F0E94291369C18C2F869586952C
:1027D000837019F0813061F061C1112321F08D2FD8
:1027E0009C2F937002C080E090E00E94D3105EC1E5
:1027F000112321F08D2F9C2F937002C080E090E078
:102800000E94E91053C11123F9F0D53F51F0D63F92
:1028100071F0D43FA9F4809128039091290381603D
:102820000BC08091280390912903826005C080919C
:1028300028039091290384609093290380932803AF
:102840008D2F0E945E1E1EC0D53F51F0D63F71F005
:10285000D43FA9F480912803909129038E7F0BC067
:1028600080912803909129038D7F05C080912803D2
:10287000909129038B7F90932903809328038D2FB8
:102880000E94C61E0E944B1F11C18C2F837009F03D
:1028900047C0111107C12D2F229526952770220FB1
:1028A000220F6D2F6F70862F90E0A0E0B0E0022E17
:1028B00004C0880F991FAA1FBB1F0A94D2F7D4FF28
:1028C00010C04FE050E060E070E004C0440F551FBE
:1028D000661F771F2A95D2F74095509560957095A1
:1028E00003C040E050E0BA01C695C695C3708A01A6
:1028F0009B01082B192B2A2B3B2BC901B801C23095
:1029000049F058F4C13019F00E946219CBC00E94FE
:102910005019C8C00E947419C5C00E944E19C2C087
:10292000112319F08C2F817001C08695882309F43A
:10293000B9C02D2F229526952770220F220F6D2FBB
:102940006F70862F90E0A0E0B0E0022E04C0880FE8
:10295000991FAA1FBB1F0A94D2F7D4FF10C04FE0E3
:1029600050E060E070E004C0440F551F661F771F01
:102970002A95D2F7409550956095709503C040E038
:1029800050E0BA01C695C695C3708A019B01082B19
:10299000192B2A2B3B2BC901B801C23049F058F43E
:1029A000C13019F00E94271A7DC00E94151A7AC002
:1029B0000E94391A77C00E94881974C0CF70112301
:1029C00039F08C2F0E94AE198D2F0E9422136AC0FD
:1029D0008D2F0E9429138C2F0E94CF1963C0D23FE4
:1029E00001F128F4D03F41F0D13FA1F03FC0D33FE7
:1029F000F9F0D43F39F13AC0112341F0053008F025
:102A00004DC08C2F8F710E94F41948C0063008F019
:102A100045C0F7CF112339F08C2F8F710E94AE196A
:102A20003DC01123C9F38C2F8F710E94CF1936C07E
:102A3000112329F08C2F8F710E9499192FC00E94A9
:102A400094192CC0112349F0CF718C2F0E94AE191C
:102A500063E08C2F0E94A31B21C081E00E94B81B61
:102A60000230E0F082E00E94B81B18C0112331F060
:102A7000002391F28D2F0E94F81110C0002399F2CB
:102A8000D93349F41FEF27EE33E011502040304096
:102A9000E1F700C000008D2F0E94A71288EF8C0D77
:102AA000843020F40E94AE100E94C008DD20C9F0DE
:102AB0000E94221B80FD15C0F70112820E941C1B80
:102AC0000E94AE19C7010E9492150E941C1BDF9143
:102AD000CF911F910F91FF90EF90DF90CF900C94CA
:102AE000CF19DF91CF911F910F91FF90EF90DF9061
:102AF000CF9008950F931F93CF93DF93EC016881DC
:102B000079818A810E94F91A8C010E944B1A0E94D5
:102B10003C19B801CE010E943013DF91CF911F9173
:102B20000F910895CF93DF93FC01908181812381E0
:102B30003481232B31F08F3F31F481E09F3F19F432
:102B400003C081E001C080E080FD0EC0EF01CF0135
:102B50000E94DB08882341F0CE010E947A15CE0145
:102B6000DF91CF910C94A308DF91CF9108950E943B
:102B70004D1B0E94501B0E946E1B0E9483200E94CE
:102B80004B1F80E090E00E94D31080E090E00C9416
:102B9000E91080910401909105010E94CA1C0C94D7
:102BA000B7150E943D1B0C94C915E92FE295EF70F3
:102BB0004E2F50E0FA013297EE30F105B0F4EC5AA6
:102BC000FF4F0C94482A803F91F018F4883E68F437
:102BD0000EC0843F51F40BC0883E48F0813F29F479
:102BE00006C093FB882780F9089580E0089581E06E
:102BF00008950E94EE1A0E94D5150895CF93DF9391
:102C000000D000D01F92CDB7DEB70F900F900F907D
:102C10000F900F90DF91CF910895CF93DF9300D065
:102C200000D000D0CDB7DEB726960FB6F894DEBF41
:102C30000FBECDBFDF91CF910895CF93DF93C091A9
:102C4000F1018091F201C817A1F0D0E0CE0166E059
:102C500070E00E940F2AFC01ED50FE4F408151812F
:102C600062817381848195810E940D162196C770BF
:102C7000E8CFDF91CF910895409123025091240233
:102C8000609125027091260280912702909128027E
:102C90000C940D161F93CF93DF9380912802829599
:102CA0008F7009F05CC080912502882309F457C019
:102CB0002091F1011091F201C0912302D0912402E0
:102CC000A0912602B091270281E0CF3F09F080E079
:102CD000482F211709F443C0109721F0DF3F21F05E
:102CE00080E003C081E001C0842F30E080FD33C06C
:102CF000C90166E070E00E940F2AFC01ED50FE4F12
:102D000081818D1328C080818C1325C0828181111F
:102D100022C0838194818A1B9B0B883C9105D8F447
:102D2000809128028F70806180932802C90166E03B
:102D300070E00E940F2AFC01E850FE4F90819F70C6
:102D40009061908383E292E00E949215DF91CF918F
:102D50001F910C941D162F5F3F4F2770BACFDF9144
:102D6000CF911F9108959F92AF92BF92CF92DF9221
:102D7000EF92FF920F931F93CF93DF93CDB7DEB700
:102D800061970FB6F894DEBF0FBECDBF8C0185E012
:102D9000F801DE011D9601900D928A95E1F7F80188
:102DA00040812181E2809091230230912402609140
:102DB0002602709127026115710531F03F3F31F411
:102DC00081E09F3F19F403C081E001C080E0F82F4B
:102DD000F1709F2E80FD4AC1F801A380B48083E288
:102DE000C82E82E0D82EF0902502F501E61BF70BE5
:102DF000FF2009F4E2C080912802582F507FE83C60
:102E0000F10508F09CC0511155C0231313C049139C
:102E100011C0FE2CE1100EC08F70806180932802DB
:102E20000E943C16C6010E94921580912802F8016A
:102E300085835CC1AB2831F02F3F31F481E04F3FF7
:102E400019F403C081E001C080E080FD03C081E08F
:102E50008E2502C080E090E0F82FF170FF2E80FFF9
:102E60001FC0E091F1013091F201E31709F41CC198
:102E7000F0E0CF0166E070E00E940F2ADC01AD5067
:102E8000BE4F11968C911197281307C08C9148134F
:102E900004C012968C91E81203C03196E770E5CF1A
:102EA000FE2CEE2009F422C18091280281608093DB
:102EB00028025AC0231306C0491304C0E11002C0FF
:102EC000F8019FC04D872E878D859E850E94F9153C
:102ED000882379F1EE2069F120912802822F8295D2
:102EE0008F7090E0029774F08091230290912402F9
:102EF00098878F831986BB86AA862C87CE01079672
:102F00000E94921586E0F801A3E2B2E001900D92D2
:102F10008A95E1F70E944A160E943C160DC02317BD
:102F200029F14D872E878D859E850E94F915811187
:102F30002CC0C8010E949215FF24F394D7C05111F0
:102F4000EECF7A2DB98AA88A522F6E2D89890E94D8
:102F5000FE1583E292E00E94921586E0F60111923E
:102F60008A95E9F70E943C16F12CC0C04913D9CFCD
:102F7000E110D7CFF8018583C8010E94921586E041
:102F8000F60111928A95E9F7B1C0EE2091F22091F5
:102F90002802822F82958F7090E002970CF4B2CFB6
:102FA00080912302909124029A8389831B82BD829F
:102FB000AC822E83CE010196A3CFE83CF10508F048
:102FC00047C0FE2CEE2009F4B4CF231330C04913C0
:102FD0002EC02091280220FD21C0822F82958F7063
:102FE000482F50E041155105C9F0F80125834F30B5
:102FF000510541F08F5F982F9295907F822F8F70AF
:10300000892B8583C8010E94921586E0F801A3E20E
:10301000B2E001900D928A95E1F743C086E0F80195
:10302000A3E2B2E001900D928A95E1F75FC04D876F
:103030002E878D859E850E94F915811163CF809121
:103040002802816080932802C8010E9492154EC018
:103050007A2DB98AA88A522F6E2D89890E94FE1571
:1030600086E0F60111928A95E9F71BC0EE2009F47B
:1030700060CF4D872E878D859E850E94F915F82E8D
:10308000882309F456CF86E0F801A3E2B2E001906C
:103090000D928A95E1F783E292E00E94F2110E947C
:1030A0004A160E943C1622C04D872E878D859E852C
:1030B0000E94EE1A292F22952F70223028F49F703B
:1030C00039F0811105C00BC0243028F49F7049F4F9
:1030D000805E883020F0C8010E9492159F2CF92C48
:1030E00005C0F8019581907F99F7F9CF8F2D6196F2
:1030F0000FB6F894DEBF0FBECDBFDF91CF911F9109
:103100000F91FF90EF90DF90CF90BF90AF909F9086
:103110000895CF93DF93CDB7DEB72C970FB6F89411
:10312000DEBF0FBECDBF4F83588769877A878B87F5
:103130009C87CE0107960E94B3168823D1F09F8109
:1031400088852A853B85232B31F08F3F31F481E040
:103150009F3F19F403C081E001C080E080FD6FC093
:103160004F81588569857A858B859C850E940D16CF
:1031700066C086E0FE013796DE01119601900D9241
:103180008A95E1F7FF81E8856A857B856115710580
:1031900031F0EF3F31F481E0FF3F19F403C081E0EB
:1031A00001C080E080FD4BC08091F20190E09C0165
:1031B0002F5F3F4F277033274091F10150E02417D4
:1031C000350709F443C0F983EA837D836C8366E0A5
:1031D00070E00E940F2ADC01AD50BE4F96E0FE0168
:1031E000319601900D929A95E1F72093F2010E9499
:1031F0001D1625C090E066E070E00E940F2A8D50F9
:103200009E4F0E94B316882371F18091F10190E0E6
:1032100066E070E00E940F2AFC01ED50FE4F4081F5
:10322000518162817381848195810E940D16809104
:10323000F10190E00196877099278093F1018091C8
:10324000F1019091F2018913D5CF0DC00E94D115E3
:103250001092F2011092F101E3E2F2E086E0DF0168
:103260001D928A95E9F72C960FB6F894DEBF0FBE33
:10327000CDBFDF91CF910895089508950C943D1925
:103280000C943E190E944019609364027093650289
:1032900080936602909367020C94B7150C944219C0
:1032A0000F931F93009164021091650220916602B2
:1032B00030916702602B712B822B932B1F910F9102
:1032C0000C9442190F931F930091640210916502B0
:1032D0002091660230916702602371238223932339
:1032E0001F910F910C9442190F931F930091640248
:1032F0001091650220916602309167026027712764
:10330000822793271F910F910C9442190C943D1919
:103310000E9486196093600270936102809362023A
:10332000909363020C94B71560E070E0CB010C94AD
:1033300088190F931F9341E050E060E070E08A012C
:103340009B0104C0000F111F221F331F8A95D2F763
:10335000C901B8011F910F910C9488190F931F9305
:1033600041E050E060E070E004C0440F551F661F6C
:10337000771F8A95D2F78091600290916102A091A7
:103380006202B09163028A019B01082B192B2A2B40
:103390003B2BC901B8011F910F910C9488190F9311
:1033A0001F9341E050E060E070E004C0440F551FFF
:1033B000661F771F8A95D2F7409550956095709556
:1033C0008091600290916102A0916202B0916302CB
:1033D0008A019B01082319232A233B23C901B80131
:1033E0001F910F910C9488190F931F9341E050E0A7
:1033F00060E070E004C0440F551F661F771F8A9578
:10340000D2F78091600290916102A0916202B09126
:1034100063028A019B01082719272A273B27C90134
:10342000B8011F910F910C9488190F931F9300916D
:103430006002109161022091620230916302602B60
:10344000712B822B932B1F910F910C9488190F9342
:103450001F930091600210916102209162023091ED
:10346000630260237123822393231F910F910C9495
:1034700088190F931F9300916002109161022091AF
:1034800062023091630260277127822793271F9180
:103490000F910C9488190895282F362F892F6BE0EF
:1034A0000E94062A820F982F9770A1E001C0AA0FF0
:1034B0009A95EAF786958695869590E065E070E0A6
:1034C0000E940F2AFC01E75DFD4F40E050E0632FB2
:1034D00070E090819B01042E02C0369527950A94D6
:1034E000E2F72170219529272A23292721934F5F6D
:1034F0005F4F4530510569F70895282F892F6BE0FC
:103500000E94062A820FA82FA77086958695869519
:1035100090E065E070E00E940F2ABC0140E050E0BE
:1035200080E0FB01E40FF51FE75DFD4F208130E0F7
:103530000A2E02C0369527950A94E2F721703327A8
:10354000042E01C0220F0A94EAF7822B4F5F5F4FCF
:103550004530510531F70895BF92CF92DF92EF9237
:10356000FF920F931F93CF93DF938C01C090600263
:10357000D0906102E0906202F09063028091640258
:1035800090916502A0916602B0916702C82AD92A7B
:10359000EA2AFB2ACFE1D0E0D701C6010C2E04C0F5
:1035A000B695A795979587950A94D2F780FD04C0A4
:1035B000219790F7B12C07C0BC2EB8018C2F0E9428
:1035C00038090197A9F38B2DDF91CF911F910F91AE
:1035D000FF90EF90DF90CF90BF900895CF93DF934F
:1035E000EC010E94AC1ABE010E943809DF91CF9114
:1035F00008951F93CF93DF93EB019091F0019923EE
:1036000021F0CB010E94EE1A13C0882349F0CB01B0
:103610000E94AC1A182F682FCE010E944C1A04C0C9
:10362000CB010E947D1A182FBE01812F0E943809FC
:10363000DF91CF911F9108958091680285958595BE
:103640008595089580916802877008959091680229
:10365000977081E009F480E00895809174020895E4
:1036600090917402892B80937402089580959091B3
:10367000740289238093740208951092740208954D
:1036800090917302892B8093730208958095909195
:103690007302892380937302089510927302089530
:1036A00010927202089580916902089508950C9411
:1036B000561B0C94571B90916902981721F0809328
:1036C00069020C94591B089580916902882329F09E
:1036D0001092690280E00C94591B0895E091040156
:1036E000F0910501809174028083E0910401F091D2
:1036F0000501908180917302892B8083E091040100
:10370000F0910501908180917202892B80838091D4
:103710006902882381F0E0910401F0910501908114
:10372000892B808380910401909105010E94841C63
:1037300081110E94641B80910401909105010C94F9
:10374000BA100C94561B982F990F990F990F692B4B
:10375000609368020E94AE198091680285958595F4
:1037600085950C94A11B1092680280E00C94A11B1B
:10377000209168028095822380936802982F977029
:1037800079F430E0482F082E000C550B241735072C
:1037900039F08595859585950E94CF190C94B31BBA
:1037A000089580E090E00E94792A21E08C3E9E4FAF
:1037B00009F020E0822F089582E090E00C946B2ABB
:1037C00083E090E00C946B2ACF9384E090E00E9419
:1037D0006B2AC82F81E290E00E946B2A2C2F30E0E8
:1037E000A901582BCA01CF910895CF93C92F682FF3
:1037F00084E090E00E947F2A6C2F81E290E0CF91DC
:103800000C947F2AAB01BC018FE090E00C94912ACC
:10381000AB01BC0183E190E00C94912A60E070E080
:10382000CB010C94081C60E070E0CB010E94021CEC
:103830000C940E1C6CEE7EEF80E090E00E949D2ABE
:1038400060E082E090E00E947F2A60E083E090E008
:103850000E947F2A10926402109265021092660202
:103860001092670260E084E090E00E947F2A60E0AE
:1038700081E290E00E947F2A60E085E090E00E9473
:103880007F2A60E086E090E00E947F2A6FEF87E069
:1038900090E00E947F2A40E050E0BA0188E090E08A
:1038A0000E94912A60E08DE090E00E947F2A40E033
:1038B00050E0BA0188E190E00E94912A60E087E13F
:1038C00090E00E947F2A40E050E0BA018CE190E055
:1038D0000E94912A60E080E290E00E947F2A0E948C
:1038E000060C0C94131C0C941A1C88E190E00C94A8
:1038F000732AAB01BC0188E190E00C94912A682FF7
:103900008EE090E00C947F2AFC01329697E080E0F4
:10391000915029F021912223D9F38F5FF9CF089597
:10392000662349F0FC01329608962191621729F02E
:10393000E817F907D1F780E0089581E008959C0128
:10394000FC0132969FEF80E04191461789F09F3F3E
:1039500019F4411101C0982F8F5F8630A9F79F3F5E
:1039600039F0F901E90FF11D97FDFA956283089589
:1039700008959C012A5F3F4FFC014281461301C01C
:103980001282019682179307B9F708950C949F1C31
:103990000C94B91C029626E0FC0111922A95E9F7D5
:1039A000089508950C94D11C0C94D11CCF930E94BF
:1039B000D41C0E945B0B0E94D21CC0E08C2F0E9482
:1039C000350B892B29F4CF5FC830C1F780E001C0E7
:1039D00081E0CF9108950C94D11C0C94EB1C0E94B3
:1039E000ED1C80913403843049F11092760220E47A
:1039F00088E190E00FB6F894A895809360000FBE20
:103A00002093600080E00E94C0080E94ED1C83B7F4
:103A1000817F846083BF83B7816083BF78948895FA
:103A200083B78E7F83BF0FB6F894A895809160000E
:103A3000886180936000109260000FBE08950C941E
:103A4000D11C0E94D1150E94AE100E94C0080C9497
:103A50001F1D1F920F920FB60F9211248F939F93E9
:103A6000AF93BF9380917602811113C080912A0396
:103A700090912B03A0912C03B0912D034196A11D91
:103A8000B11D80932A0390932B03A0932C03B09332
:103A90002D03BF91AF919F918F910F900FBE0F900B
:103AA0001F90189582E084BD93E095BD9AEF97BD75
:103AB00080936E0008952FB7F89480912A03909117
:103AC0002B03A0912C03B0912D032FBF08959C01CF
:103AD0004FB7F89480912A0390912B03A0912C0367
:103AE000B0912D034FBF821B930B089578941F92C2
:103AF0000F920FB60F9211248F939F93AF93BF93A2
:103B000080912A0390912B03A0912C03B0912D0357
:103B10000196A11DB11D80932A0390932B03A093BE
:103B20002C03B0932D03BF91AF919F918F910F9074
:103B30000FBE0F901F90189581E08093E00080E207
:103B40008093D8001092C9008FE19EE40197F1F7AD
:103B500000C0000087E090EBDC0180933D03909370
:103B60003E03A0933F03B09340039CE088E10FB66F
:103B7000F894A895809360000FBE90936000FFCFEB
:103B80000E94D11B811102C00E94731C0E94DC1B89
:103B9000809375020E94E41B90932F0380932E0361
:103BA0000E94E01B682F70E080E090E00C944E19BA
:103BB00080917E0280FF0CC080910B0190E065E057
:103BC00070E00E940F2A95958795959587952EC050
:103BD00081FF0AC080910B0190E065E070E00E94D7
:103BE0000F2A9595879522C082FF08C080910B010E
:103BF00090E065E070E00E940F2A18C020917D02DD
:103C00002223D9F030910A01231780F780910B010C
:103C100090E065E070E00E940F2A622F70E00E9441
:103C20000F2A632F70E00E94342ACB01803891055F
:103C300038F4009739F481E005C085E090E00895FC
:103C40008FE70895089580917E0280FF08C06091FB
:103C5000070170E0759567957595679523C081FF9D
:103C600006C06091070170E0759567951BC082FFE3
:103C700004C06091070170E012C060917D0266236C
:103C8000A9F0209106016217A0F78091070170E06A
:103C900090E00E940F2A622F70E00E94342A603860
:103CA000710540F46115710519F406C061E070E01A
:103CB000862F08958FE7089581E00895803F21F4CD
:103CC0000E94D81D819504C0813F29F40E94D81D0F
:103CD000809382020895823F21F40E94D81D81952D
:103CE00004C0833F29F40E94D81D80938102089567
:103CF000893F19F40E94231E05C08A3F31F40E94B7
:103D0000231E81958093830208958B3F21F40E94A6
:103D1000231E819504C08C3F29F40E94231E8093AA
:103D200084020895843F21F480918002816017C04D
:103D3000853F21F480918002826011C0863F21F48A
:103D40008091800284600BC0873F21F480918002C3
:103D5000886005C0883F31F4809180028061809343
:103D6000800208958D3F21F480917E0281600BC016
:103D70008E3F21F480917E02826005C08F3F29F43E
:103D800080917E02846080937E020895803F39F4A2
:103D90008091820287FF6CC01092820269C0813FCD
:103DA00029F4809182021816BCF362C090918102BE
:103DB000823F29F497FF5CC01092810259C0833F73
:103DC00019F41916CCF354C0893F41F48091830251
:103DD00018160CF04DC0109283024AC08A3F29F495
:103DE0008091830287FF44C0F6CF8B3F39F48091E6
:103DF000840287FF3DC0109284023AC08C3F29F4B0
:103E0000809184021816BCF333C0843F21F4809162
:103E100080028E7F17C0853F21F4809180028D7FC4
:103E200011C0863F21F4809180028B7F0BC0873FB9
:103E300021F480918002877F05C0883F31F4809112
:103E400080028F7E8093800213C08D3F21F4809189
:103E50007E028E7F0BC08E3F21F480917E028D7F8B
:103E600005C08F3F29F480917E028B7F80937E0274
:103E70008091810281110EC08091820281110AC05D
:103E800080918302811106C080918402811102C059
:103E900010927D0208958FE792E00E94C5100E9463
:103EA0005B1D90937C0280937B020895CF93DF93F8
:103EB00000D000D000D0CDB7DEB786E0EFE7F2E06B
:103EC000DE01119601900D928A95E1F780918102B1
:103ED000811105C080918202882309F481C08091FC
:103EE000790290917A020E94671DFC0120917D0267
:103EF000222339F080910C0190E08E179F0760F02B
:103F00006FC080910D0190E06AE070E00E940F2A7E
:103F10008E179F0718F064C02F3F19F02F5F209372
:103F20007D02109283021092840280918102181601
:103F300024F40E94D81D809381028091810287FF22
:103F400005C00E94D81D81958093810280918202D4
:103F5000181624F40E94D81D809382028091820258
:103F600087FF05C00E94D81D8195809382028091B1
:103F70008102882311F1209182022223F1F0082E80
:103F8000000C990B65EB70E00E940F2A992319F041
:103F90009093810203C081E080938102822F220FDF
:103FA000990B65EB70E00E940F2A992319F090930A
:103FB000820203C081E0809382020E944B1F8091A5
:103FC0007B0290917C0290937A028093790286E042
:103FD000FE013196AFE7B2E001900D928A95E1F7CC
:103FE00080918302811105C080918402882309F4A5
:103FF00081C080917702909178020E94671DFC0138
:1040000020917D02222339F08091080190E08E17E3
:104010009F0760F06FC08091090190E06AE070E056
:104020000E940F2A8E179F0718F064C02F3F19F0C7
:104030002F5F20937D021092810210928202809164
:104040008302181624F40E94231E80938302809119
:10405000830287FF05C00E94231E819580938302FF
:1040600080918402181624F40E94231E80938402F7
:104070008091840287FF05C00E94231E8195809352
:10408000840280918302882311F1209184022223EB
:10409000F1F0082E000C990B65EB70E00E940F2ADE
:1040A000992319F09093830203C081E080938302E7
:1040B000822F220F990B65EB70E00E940F2A992343
:1040C00019F09093840203C081E0809384020E94DF
:1040D0004B1F80917B0290917C0290937802809399
:1040E000770286E0FE013196AFE7B2E001900D92D3
:1040F0008A95E1F726960FB6F894DEBF0FBECDBFC6
:10410000DF91CF910895EFE7F2E086E0DF011D92A5
:104110008A95E9F710927D0210927E02089583300D
:1041200081F128F4813059F08230D1F00895853042
:1041300009F449C0B8F1863009F456C00895809159
:104140000D01262F30E0280F311D2F3F310524F4BB
:10415000680F60930D0108958FEF80930D0108950E
:1041600080910C01262F30E0280F311D2F3F3105A3
:1041700024F4680F60930C0108958FEF80930C0175
:10418000089580910B01262F30E0280F311D2F3F1D
:10419000310524F4680F60930B0108958FEF80932D
:1041A0000B01089580910A01262F30E0280F311D60
:1041B0002F3F310524F4680F60930A0108958FEFB3
:1041C00080930A01089580910701262F30E0280F7F
:1041D000311D2F3F310524F4680F609307010895C6
:1041E0008FEF80930701089580910601262F30E01C
:1041F000280F311D2F3F310524F4680F609306010D
:1042000008958FEF809306010895833011F128F40B
:10421000813049F0823091F00895853081F120F1AC
:104220008630C1F1089580910D01681720F4861B36
:1042300080930D01089510920D01089580910C0155
:10424000681720F4861B80930C01089510920C01CE
:10425000089580910B01681720F4861B80930B0151
:10426000089510920B01089580910A01681720F4B7
:10427000861B80930A01089510920A010895809187
:104280000701681720F4861B809307010895109298
:104290000701089580910601681720F4861B80931A
:1042A000060108951092060108950F931F9341E0AF
:1042B00050E060E070E08A019B0104C0000F111F14
:1042C000221F331F8A95D2F7C901B8010E944E19E7
:1042D0001F910F910C94D1158B3109F474C058F5CE
:1042E0008B3009F492C078F4863009F446C020F48B
:1042F000853009F44CC08BC0873009F456C0883033
:1043000009F483C084C0803109F470C068F48E3031
:1043100009F07DC08091750282FB222720F991E08F
:10432000922790FB82F958C0863109F46EC089311A
:1043300009F46BC06CC08A32E9F060F4873209F48A
:1043400061C028F48E3108F462C08D515CC089329E
:10435000F1F05DC0833450F48A3308F051C08533E6
:1043600009F450C0883309F450C051C0833409F4B3
:1043700049C04DC00E94731C48C080917502817F66
:104380008E7F8093750281E08093860208950E945B
:10439000D1152FEF83ED90E3215080409040E1F75D
:1043A00000C000000E949C1D30C080917502982FB3
:1043B0009095917090FB80F980937502911125C0C2
:1043C000897F877F10C08091750281FB222720F9A9
:1043D00091E0922790FB81F9809375029923A9F0CF
:1043E000809175028160809375020FC08091750283
:1043F00083FB222720F991E0922790FB83F9ECCFF1
:10440000895301C080E00E94552181E0089580E039
:10441000089580E008950C9409228E518A3030F47A
:10442000E82FF0E0EC54FE4F8081089580E008957D
:10443000CF93C82F80918602813051F018F08230DE
:1044400099F17DC00E942D1B823209F07AC004C010
:104450000E942D1B823261F48C2F0E940B2281114D
:1044600004C08C2F0E946C211DC081E090E01AC016
:104470008C2F0E940922811114C0C43179F048F4B4
:10448000CB3079F0C03109F060C082E080938602C1
:1044900008C0C93219F0C83321F057C01092860203
:1044A00054C081E0817053C0C93289F118F5C4311C
:1044B00071F1B0F4C73009F046C08EE180930D0170
:1044C00082E380930C018AE080930B0184E1809366
:1044D0000A0188E08093070188E28093060133C0D7
:1044E00082EE8C0F863078F58C2F0E940D228093FF
:1044F000850229C0CE34E9F020F4CB3421F56AE0FE
:1045000013C0C13579F0C235F1F461E00DC080917E
:104510008502882319F01092850215C081E08093EE
:10452000860215C061E006C0809185020E948F203E
:104530000AC06AE0809185020E94052104C01092A1
:10454000860280E004C081E002C080E0ABCFCF9162
:10455000089580918F020895CF93DF9300D01F922A
:10456000CDB7DEB790913403943011F589837B8306
:104570006A839093E9008FEF9091E800815095FD58
:1045800006C095ED9A95F1F700008111F5CF809165
:10459000E80085FF0DC040E050E063E070E0CE0130
:1045A00001960E945E258091E8008E778093E80056
:1045B0000F900F900F90DF91CF910895CF93DF93DD
:1045C000EC010E944125823011F0843031F4BE01AB
:1045D00084E0DF91CF910C94AC22DF91CF910895CC
:1045E000BC0183E00C94AC22CF93DF93EC010E94DA
:1045F0004125823011F08430F9F484E08093E900A1
:104600008FEF9091E800815095FD06C095ED9A9549
:10461000F1F700008111F5CF8091E80085FF0CC013
:1046200040E050E066E070E0CE010E945E2580919F
:10463000E8008E778093E800DF91CF910895CF93C3
:10464000DF93EC010E944125823011F0843039F56E
:1046500081E08093E9008FEF9091E800815095FD13
:1046600006C095ED9A95F1F700008111F5CF809184
:10467000E80085FF14C040E050E068E070E0CE0143
:104680000E945E258091E8008E778093E80088E0A4
:10469000FE01A7E8B2E001900D928A95E1F7DF9163
:1046A000CF910895CF93603219F5209134032430CF
:1046B000F9F4C091E900CF703091EC00232F217004
:1046C00030FD20E8C22B22E02093E9002091E80091
:1046D00020FF0BC040E050E060E270E00E945E25E9
:1046E0008091E8008E778093E800CF70C093E90056
:1046F000CF9108950C94330B6091300381E06111E8
:1047000001C080E00C94200B0E94211D9091340385
:1047100081E0943009F080E0609130030C94270B25
:1047200042E061EC81E00E94AD2642E261EC84E06F
:104730000E94AD2642E261EC82E00E94AD2642E298
:1047400060EC83E00E94AD269091340381E09430C8
:1047500009F080E0609130030C941A0B80913603CD
:10476000833009F45EC030F4813071F0823009F496
:1047700097C008958A3009F483C08B3009F469C06A
:10478000893009F0A5C020C080913503813A09F035
:104790009FC08091E800877F8093E8008091390373
:1047A00090913A03892B21F468E087E892E003C0F6
:1047B00060E080E090E070E00E94F4258091E800E5
:1047C0008B778093E800089580913503813209F05A
:1047D0007FC08091390390913A03009719F00297B6
:1047E00009F076C08091E800877F8093E80080918F
:1047F000E80082FD05C0809134038111F8CF68C0C4
:104800008091F200823029F48091F1008B7F813019
:1048100021F48091F10080938F028091E8008B77E2
:1048200053C080913503813A09F052C08091390319
:1048300090913A03892B09F04BC08091E800877F63
:104840008093E8008091E80080FFFCCF8091180100
:1048500036C0809135038132D9F58091390390912A
:104860003A03892BA9F58091E800877F8093E800BF
:104870000E94E22680913703809318010C94D11591
:1048800080913503813221F58091E800877F809304
:10489000E8000E94E22680913803809390020895F8
:1048A00080913503813AA1F48091E800877F80935D
:1048B000E8008091E80080FFFCCF80919002809317
:1048C000F1008091E8008E778093E8000C94E22656
:1048D00008951F93CF93DF93CDB7DEB7A0970FB6A0
:1048E000F894DEBF0FBECDBF84B7877F84BF0FB6FD
:1048F000F894A89580916000886180936000109280
:1049000060000FBE90E080E80FB6F89480936100DD
:10491000909361000FBE0E942D0B0E9406110E9411
:1049200034270E9487278091E20084608093E20010
:1049300078940E94EB290E940C118EE091E00E9475
:10494000A91013E080913403853069F40E94EF1CB4
:10495000809132038823B1F30E94D61C882391F3FF
:104960000E944825EFCF0E941411809134038430B7
:1049700049F71093E9008091E80082FFE3CF80912E
:10498000E80085FF0AC040E050E060E270E0CE0140
:1049900001960E94A92591E001C090E08091E80075
:1049A0008B778093E800992369F260E2CE0101964B
:1049B0000E94FF06C7CF0C94DD24292F3327233014
:1049C0003105C9F060F42130310581F02230310524
:1049D00009F047C08BE590E02EED33E046C0213270
:1049E000310511F12232310561F13BC082E190E0E5
:1049F00029E334E03AC099278130910561F040F015
:104A00008230910559F0039761F5E8EEF2E008C0B5
:104A1000EAEDF3E005C0EEE7F3E002C0EEEEF2E00F
:104A2000849190E09F0121C063307105D0F4660F3E
:104A3000771FFB01E953FE4F2081318189E090E02F
:104A400014C06330710568F4FB01EE0FFF1FEF53D4
:104A5000FE4F20813181FB01E254FE4F808190E0C6
:104A600004C080E090E020E030E0FA013183208350
:104A7000089580913403843011F081E0089582E03C
:104A8000089580919102811102C00C9439250895F6
:104A900084E089BD86E089BD09B400FEFDCF809128
:104AA000D8008F7D8093D8008091E0008260809351
:104AB000E0008091E00081FDFCCF0895CF92DF926D
:104AC000EF92FF920F931F93CF93DF93EC018B0133
:104AD0007A010E940127811133C0E114F10439F0F9
:104AE000F70180819181081B190BC80FD91FC12CB8
:104AF000D12C0115110519F18091E80085FD16C032
:104B00008091E8008E778093E800E114F10449F089
:104B1000F70180819181C80ED91ED182C08285E0C3
:104B20000FC00E940127882321F30AC08991809336
:104B3000F10001501109FFEFCF1ADF0ADACF80E050
:104B4000DF91CF911F910F91FF90EF90DF90CF9069
:104B50000895CF92DF92EF92FF920F931F93CF931E
:104B6000DF93EC018B017A010E940127811133C090
:104B7000E114F10439F0F70180819181081B190BD0
:104B8000C80FD91FC12CD12C0115110519F1809125
:104B9000E80085FD16C08091E8008B778093E800DF
:104BA000E114F10449F0F70180819181C80ED91E0A
:104BB000D182C08285E00FC00E940127882321F3A3
:104BC0000AC08091F100899301501109FFEFCF1ABB
:104BD000DF0ADACF80E0DF91CF911F910F91FF9034
:104BE000EF90DF90CF90089520913B0330913C03EC
:104BF0002617370748F06115710539F42091E80050
:104C00002E772093E80001C0B901FC0120E0611576
:104C1000710561F1809134038823D9F18530D9F190
:104C20008091E80083FD39C08091E80082FD2BC0AF
:104C30008091E80080FFEBCF8091F20090E0611559
:104C4000710551F08830910538F421912093F100DD
:104C5000615071090196F3CF21E0089709F020E037
:104C60008091E8008E778093E800D1CF2111D2CFD8
:104C70000AC080913403882361F0853061F080910F
:104C8000E80083FD0AC08091E80082FFF2CF80E057
:104C9000089582E0089583E0089581E008952091C9
:104CA0003B0330913C032617370748F06115710527
:104CB00039F42091E8002E772093E80001C0B90173
:104CC000FC0120E06115710579F18091340388239E
:104CD00009F43DC0853009F43CC08091E80083FDB3
:104CE0003AC08091E80082FD2CC08091E80080FFEE
:104CF000E9CF8091F20090E06115710559F088309C
:104D0000910540F424912093F1003196615071098E
:104D10000196F2CF21E0089709F020E08091E800A9
:104D20008E778093E800CECF2111CFCF0AC080913B
:104D30003403882361F0853061F08091E80083FDC1
:104D40000AC08091E80082FFF2CF80E0089582E0FF
:104D5000089583E0089581E00895982F953068F5CF
:104D60009093E900981739F07091EC002091ED00D4
:104D70005091F00003C0242F762F50E021FD02C097
:104D80009F5FECCF3091EB003E7F3093EB00309192
:104D9000ED003D7F3093ED003091EB0031603093BA
:104DA000EB007093EC002093ED005093F000209105
:104DB000EE0027FDE5CF80E008958F708093E90035
:104DC00081E008958091350387FF11C08091E8004C
:104DD00082FD05C0809134038111F8CF11C080910C
:104DE000E8008B770BC080913403882349F08091D1
:104DF000E80080FFF8CF8091E8008E778093E8008C
:104E000008952091E4003091E50095E64091EC0092
:104E1000842F817040FF23C08091E80080FD1DC079
:104E200080913403882399F0853099F08091EB00CC
:104E300085FD11C04091E4005091E500241735072D
:104E400029F3915011F09A01E1CF84E0089582E0B6
:104E5000089583E0089581E0089580E008954091E9
:104E6000E80042FFDDCF08950E9491270E94942719
:104E7000E0EEF0E0808181608083E8EDF0E0808109
:104E80008F77808319BCE3E6F0E0808181608083C6
:104E90001092330308950E9491270E9494278091D5
:104EA000D8008F778093D8008091D8008068809355
:104EB000D8008091D8008F7D8093D80084E089BD90
:104EC00086E089BD09B400FEFDCF10923403109234
:104ED0003003109232031092310342E060E080E030
:104EE0000E94AD268091E1008E7F8093E100809149
:104EF000E20081608093E2008091E200886080930C
:104F0000E2008091E0008E7F8093E0000895E3E668
:104F1000F0E080818E7F808381E0809333030C9466
:104F20004B271092E20008951092E10008951F921D
:104F30000F920FB60F9211242F933F934F935F93CD
:104F40006F937F938F939F93AF93BF93EF93FF9351
:104F50008091E10082FF0BC08091E20082FF07C0D8
:104F60008091E1008B7F8093E1000E94EA2980918B
:104F7000E10080FF19C08091E20080FF15C08091A0
:104F8000E2008E7F8093E2008091E2008061809356
:104F9000E2008091D80080628093D80019BC85E03F
:104FA000809334030E947C238091E10084FF30C011
:104FB0008091E20084FF2CC084E089BD86E089BD39
:104FC00009B400FEFDCF8091D8008F7D8093D8007A
:104FD0008091E1008F7E8093E1008091E2008F7EDE
:104FE0008093E2008091E20081608093E2008091F2
:104FF0003003882311F084E007C08091E30087FD2F
:1050000002C081E001C083E0809334030E948423C6
:105010008091E10083FF29C08091E20083FF25C0D9
:105020008091E100877F8093E10082E080933403E8
:10503000109230038091E1008E7F8093E100809197
:10504000E2008E7F8093E2008091E2008061809395
:10505000E20042E060E080E00E94AD268091F00036
:1050600088608093F0000E947A23FF91EF91BF91B6
:10507000AF919F918F917F916F915F914F913F91F0
:105080002F910F900FBE0F901F9018951F920F92A7
:105090000FB60F9211242F933F934F935F936F930B
:1050A0007F938F939F93AF93BF93CF93DF93EF93B0
:1050B000FF93C091E900CF708091EC00D82FD170A0
:1050C00080FDD0E81092E9008091F000877F809306
:1050D000F00078940E948A281092E9008091F000F4
:1050E00088608093F000CD2BCF70C093E900FF91D2
:1050F000EF91DF91CF91BF91AF919F918F917F9170
:105100006F915F914F913F912F910F900FBE0F9034
:105110001F9018951F93CF93DF93CDB7DEB7AA9753
:105120000FB6F894DEBF0FBECDBFE5E3F3E080918C
:10513000F100819323E0ED33F207C9F70E94AE231B
:105140008091E80083FF2EC1809135039091360352
:10515000492F50E04A30510508F024C1FA01EE59B8
:10516000FF4F0C94482A803821F0823809F01AC188
:1051700008C08091310390913203992389F08260B5
:105180000FC0809139038F70853008F00BC1809378
:10519000E9008091EB0085FB882780F91092E900F7
:1051A0009091E800977F9093E8008093F10010922F
:1051B000F100D1C0282F2D7F09F0F4C0882319F009
:1051C000823061F0EFC080913703813009F0EAC08E
:1051D000933009F080E0809332032EC08091370332
:1051E00081112AC0809139038F702FEF280F24304E
:1051F00008F0D8C08093E9002091EB0020FF1CC08C
:10520000933021F48091EB00806214C09091EB0008
:1052100090619093EB0021E030E0A90102C0440FBF
:10522000551F8A95E2F74093EA001092EA008091B8
:10523000EB0088608093EB001092E9008091E80019
:10524000877F8093E8000E94E226ACC08111AAC04B
:10525000109137031F778091E3008078812B809332
:10526000E3008091E800877F8093E8000E94E226B7
:105270008091E80080FFFCCF8091E30080688093FC
:10528000E300111102C082E001C083E08093340387
:1052900089C08058823008F085C080913703909192
:1052A00038038C3D53E0950779F583E08A838AE2E1
:1052B00089834FB7F894DE01139620E03EE051E277
:1052C000E32FF0E050935700E49120FF03C0E295F4
:1052D000EF703F5FEF708E2F90E0EA3010F0C796CE
:1052E00001C0C0968D939D932F5F243149F74FBF26
:1052F0008091E800877F8093E8006AE270E0CE0149
:1053000001960E94F42516C06091390370913A030A
:10531000AE014F5F5F4F0E94DB24BC01892B09F473
:1053200041C09091E800977F9093E80089819A812D
:105330000E944F268091E8008B778093E80032C06E
:10534000803881F58091E800877F8093E800809124
:1053500030038093F1008091E8008E7772CF811145
:1053600021C0809137039091380399270297D4F494
:105370008091E800877F8093E800809137038093D5
:1053800030030E94E22680913003811106C0809193
:10539000E30087FD02C081E001C084E08093340314
:1053A0000E9490238091E80083FF0AC08091E8006A
:1053B000877F8093E8008091EB0080628093EB0010
:1053C000AA960FB6F894DEBF0FBECDBFDF91CF9186
:1053D0001F9108950895CF93809134038823A1F0FD
:1053E000C091E900CF709091EC00892F817090FD01
:1053F00080E8C82B1092E9008091E80083FD0E94AC
:105400008A28CF70C093E900CF910895002480FDD1
:10541000060E660F11F08695D1F7802D08950024B1
:10542000552704C0080E591F880F991F009729F0AF
:1054300076956795B8F37105B9F7802D952F089586
:10544000AA1BBB1B51E107C0AA1FBB1FA617B707AA
:1054500010F0A61BB70B881F991F5A95A9F78095C6
:105460009095BC01CD01089597FB072E16F400948A
:1054700007D077FD09D00E94202A07FC05D03EF412
:10548000909581959F4F0895709561957F4F0895F0
:10549000EE0FFF1F0590F491E02D0994FB01DC0154
:1054A00004C08D910190801921F441505040C8F7FB
:1054B000881B990B0895FB01DC0102C001900D923D
:1054C00041505040D8F70895DC0101C06D93415020
:1054D0005040E0F70895F999FECF92BD81BDF89A4A
:1054E000992780B50895A6E1B0E044E050E00C941F
:1054F000A52AA8E1B0E042E050E00C94A52A262FAE
:10550000F999FECF92BD81BDF89A019700B40216B9
:1055100039F01FBA20BD0FB6F894FA9AF99A0FBE67
:1055200008950396272F0E94802A0E947F2A252F04
:105530000E94802A242F0C94802A0196272F0E94F3
:10554000802A0C947F2ADC01CB01FC01F999FECF63
:1055500006C0F2BDE1BDF89A319600B40D924150FB
:0A5560005040B8F70895F894FFCF0B
:10556A00011B01146A022808641E140A321EA922A9
:10557A001F23F422F022DE220155AA6B6579626F9D
:10558A00617264732F78776861747369742F6272B9
:10559A00616E645F6E65775F6D6F64656C5F662FC1
:1055AA006637372F77636173732F77636173732E4F
:1055BA006300E200E900EA00B500B600B700CD00DA
:1055CA008301CC008A019201940121022302240260
:1055DA002502260227022A02B300B4006F007000D7
:1055EA00818283E200E900EA00B500B600B700CD87
:1055FA00008301CC008A0192019401210223022432
:10560A00022502260227022A02B300B4006F0070A4
:10561A00008182830102030405060708090040226B
:0E562A0081EE044B046D04F003090429040012
:00000001FF
